:100000000C945D000C9448080C9421080C94850015
:100010000C9485000C9485000C9485000C9485004C
:100020000C9485000C9485000C9485000C9485003C
:100030000C9485000C9485000C9485000C9485002C
:100040000C94D7070C9485000C9485000C948500C3
:100050000C9485000C9485000C9485000C9485000C
:100060000C946F080C948500000000002400270009
:100070002A0000000000250028002B0004040404CE
:100080000404040402020202020203030303030342
:10009000010204081020408001020408102001021F
:1000A00004081020000000080002010000030407FB
:1000B00000000000000000008E0911241FBECFEFD9
:1000C000D8E0DEBFCDBF23E0A4E3B2E001C01D92C3
:1000D000AE32B207E1F712E0A0E0B1E0E6ECF1E207
:1000E00002C005900D92A433B107D9F710E0CDE519
:1000F000D0E004C02197FE010E94320CCC35D1071C
:10010000C9F70E94C3090C94E1100C94000090E020
:10011000FC01EC55FF4F2491FC01E057FF4F349157
:10012000FC01E458FF4FE491EE23C9F0222339F09B
:10013000233001F1A8F4213019F1223029F1F0E047
:10014000EE0FFF1FEE58FF4FA591B4918FB7F894B3
:10015000EC91611126C030953E233C938FBF0895EA
:100160002730A9F02830C9F0243049F78091800069
:100170008F7D03C0809180008F7780938000DFCFD8
:1001800084B58F7784BDDBCF84B58F7DFBCF809125
:10019000B0008F778093B000D2CF8091B0008F7D78
:1001A000F9CF3E2BDACF3FB7F8948091FF029091C0
:1001B0000003A0910103B091020326B5A89B05C0DE
:1001C0002F3F19F00196A11DB11D3FBFBA2FA92FD6
:1001D000982F8827BC01CD01620F711D811D911DD3
:1001E00042E0660F771F881F991F4A95D1F708953F
:1001F0008F929F92AF92BF92CF92DF92EF92FF9237
:100200006B017C010E94D3004B015C01C114D1043D
:10021000E104F104B9F00E94D300681979098A0950
:100220009B09683E73408105910580F321E0C21A65
:10023000D108E108F10888EE880E83E0981EA11C21
:10024000B11CE4CFFF90EF90DF90CF90BF90AF90C4
:100250009F908F9008950F931F938091F802909133
:10026000F90201969093F9028093F8022FB7F8945F
:100270008091FB029091FC02A091FD02B091FE02E0
:100280002FBF409134025091350260913602709137
:100290003702AA27BB27452B462B472B89F04091D5
:1002A0003402509135026091360270913702485401
:1002B000544F6F4F7F4F481759076A077B0710F558
:1002C0002091F702222349F14091F3025091F40268
:1002D0006091F5027091F6028C019D01041B150BD3
:1002E000260B370BB901A8014093F3025093F40297
:1002F0006093F5027093F6022091F70231E0232714
:100300002093F7028093340290933502A093360233
:10031000B09337021F910F9108958093F302909349
:10032000F402A093F502B093F602E6CF0895089583
:100330000895AF92BF92CF92DF92EF92FF920F9308
:100340001F93CF93DF936C017B018B01040F151F6B
:10035000EB015E01AE18BF08C017D10759F06991D3
:10036000D601ED91FC910190F081E02DC601099537
:10037000892B79F7C501DF91CF911F910F91FF90E4
:10038000EF90DF90CF90BF90AF900895CF93DF9321
:10039000F0E0E0E0EB01C40FD51F9881992311F044
:1003A000903320F48E2FDF91CF91089586EC890F42
:1003B0008730C0F385EA890F8630A0F385E8890F7E
:1003C000853080F321E030E097FF21C0923CE0F0DF
:1003D00022E095FF06C023E094FF03C024E093FDD4
:1003E00025E0DE01119630E0CD018C1B9D0B8217BC
:1003F00093076CF48D9190E0689415F89595879526
:100400001694E1F7029781F34F5F5F4FC3CF3196A8
:10041000420F531FBFCF20917902260F3327331F7E
:1004200021323105ECF42091C202FC0190E080E021
:10043000243069F082E00895A09179022191AC0105
:10044000475A5D4FA40FB52FB11D2C930196861707
:1004500098F380917902680F6093790280E00895A3
:1004600081E008951092C20281E08093C10210924F
:100470009C0261E082E10E94870061E083E10E94CA
:100480008700E9EBF0E080818E7F808380818D7F23
:10049000808388E48093B80085E48093BC0008954D
:1004A000CF93DF9391E0909358028823B9F0C091E5
:1004B000B800D091BA008091BC008A7B8093BC00C8
:1004C00060E082E10E94870060E083E10E94870093
:1004D0000E943202D093BA00C093B800DF91CF914E
:1004E00008950895E091F1028091F002E81730F448
:1004F000F0E0E85CFD4F808190E008958FEF9FEF82
:1005000008959091F1028091F0022FEF3FEF98173C
:1005100048F4E92FF0E0E85CFD4F208130E09F5F78
:100520009093F102C90108958091F0029091F10237
:10053000891B990B0895CF92DF92EF92FF920F9350
:100540001F93CF93DF937C01CB018A012091C802D6
:10055000222389F0EB016B01C40ED51ECC15DD05FD
:1005600069F06991D701ED91FC910190F081E02D46
:10057000C7010995F3CF642F0E940B02C801DF91D8
:10058000CF911F910F91FF90EF90DF90CF90089542
:10059000CF93DF931F92CDB7DEB769832091C80256
:1005A0002223F9F02091EE02203258F021E030E0D1
:1005B000FC013383228390E080E00F90DF91CF91A4
:1005C00008958091EF02E82FF0E0E753FD4F998105
:1005D00090838F5F8093EF028093EE0281E090E042
:1005E000ECCF61E0CE0101960E940B02F7CFCF92D3
:1005F000DF92EF92FF920F931F93CF93DF93FC0153
:10060000C48121E02093C802C093E9021092EF0256
:100610001092EE028385682B83E093E00E94C8026B
:10062000D091EE02D13208F092C00E94D3006B014B
:100630007C018091C202811165C082E08093C20278
:1006400081E08093C1028FEF8093C0021092BF02BD
:10065000D093BE02A9ECB2E0EEE9F2E080E0D8135C
:1006600085C010929D0280919D02CC0FC82BC09333
:100670009D0280919C02813009F07CC010929C0206
:100680000E94D3006B017C0180919D028093BB008E
:100690008091C4029091C502A091C602B091C70298
:1006A000892B8A2B8B2B99F00E94D3000091C402D6
:1006B0001091C5022091C6023091C7026C197D09C4
:1006C0008E099F090617170728073907E0F180915F
:1006D000BC0083FDD9CF85EC8093BC000E94D30081
:1006E0006B017C018091C202823009F445C0809187
:1006F000C0028F3F61F18091C002803241F1809150
:10070000C00225C08091C4029091C502A091C6028A
:10071000B091C702892B8A2B8B2B09F48ACF0E94B8
:10072000D3000091C4021091C5022091C6023091FD
:10073000C7026C197D098E099F090617170728073C
:10074000390708F076CF8091C3020E9450021092C0
:10075000EF021092EE021092C802DF91CF911F912A
:100760000F91FF90EF90DF90CF9008959D9191931E
:100770008F5F75CF85EEB0CF8091C4029091C50296
:10078000A091C602B091C702892B8A2B8B2B09F44A
:10079000A9CF0E94D3000091C4021091C5022091FC
:1007A000C6023091C7026C197D098E099F09061790
:1007B00017072807390708F095CFC5CF089590E0AF
:1007C00080E008950F931F93CF938C01C62F0E9452
:1007D000F7026C2F6460C8010E94F7026C2F6B7FD8
:1007E000C8010E94F70283EC90E00197F1F7CF91E6
:1007F0001F910F9108950F931F93CF93DF938C0157
:10080000D62FC42F607F642B0E94E20380E1D89F23
:10081000B00111246C2BC801DF91CF911F910F9172
:100820000C94E2038091200390912103009749F0FA
:10083000FC01108E48E050E06FEF70E007960E94D8
:10084000230E109227031092280380911C0380939B
:10085000240340E061E08FE093E00E94FB038BE320
:100860009FE10197F1F70895CF93DF93CDB7DEB7FE
:1008700028970FB6F894DEBF0FBECDBF28E0E6ED97
:10088000F1E0DE01119601900D922A95E1F7FC014D
:100890002085241710F44FEF420F50E0440F551FEE
:1008A00021E030E02C0F3D1F420F531FFA01208141
:1008B000620F606840E028960FB6F894DEBF0FBE66
:1008C000CDBFDF91CF910C94FB03FC01262F6789EC
:1008D000461720F0842F0E94DC0B492F208F418F78
:1008E0008585858B622FCF010C9434046F927F92A3
:1008F0008F929F92AF92BF92CF92DF92EF92FF9230
:100900000F931F93CF93DF936C018B016E377105AB
:10091000A8F1DC0154968C9154978617170630F095
:1009200053968C918617170671F168F1F601C1890B
:10093000D289209709F4B0C08A8190E050E040E06D
:10094000712C612C681679060CF0A6C02B813C81B5
:10095000240F351F495F5F4FD9016D917C910617B8
:10096000170709F5F88CFE01379680E0F816F9F0C4
:100970009191691609F483C08F5FF8CF60327105D9
:1009800010F40AE210E0C801DF91CF911F910F919E
:10099000FF90EF90DF90CF90BF90AF909F908F909F
:1009A0007F906F900895BFEF6B1A7B0ACBCFE7E083
:1009B000EF1508F467C0D6015996EC9059975896F0
:1009C0007C9081E08F0D888F8E01015F1F4F2E5F1D
:1009D0003F4F88E0F80111928A95E9F76801F80124
:1009E00050E040E0A0E8BA2ED90163E070E08D91BC
:1009F0008B2190E0042E02C0880F991F0A94E2F721
:100A0000062E02C0959587950A94E2F79081892B6E
:100A100080836F5F7F4F6830710549F7B6944F5FF1
:100A20005F4F319648305105F9F68D809E80AF2C8E
:100A3000B12CB501E3E0660F771FEA95E1F760643A
:100A400040E0C4010E94FB03085F1F4FD6016D9177
:100A50006D01D401ED91FC910190F081E02DC40174
:100A600009950C151D0591F7FE01EA0DFB1D678226
:100A70004E2D672D8D819E810E9465048F2D082F3C
:100A800010E081CFE881F9810190F081E02DB8017B
:100A9000CE0109958F3F99F7F601268530E090E069
:100AA00080E0821793070CF06CCFAC01440F551F08
:100AB000480F591FD6011F96ED91FC91E40FF51FC9
:100AC000408151810417150721F402810F3FC1F6BF
:100AD00058CF0196E6CF41E00E94FB0381E090E011
:100AE00008952F923F924F925F926F927F928F92D2
:100AF0009F92AF92BF92CF92DF92EF92FF920F93AD
:100B00001F93CF93DF93CDB7DEB72A970FB6F89434
:100B1000DEBF0FBECDBF2DB73EB73A872987FC0198
:100B20000481158198012F5F3F4F4DB75EB7421B7F
:100B3000530B0FB6F8945EBF0FBE4DBFEDB7FEB7B7
:100B400031967F01232B21F00115110539F5108213
:100B5000B12CA12C912C812C9E012F5F3F4F39018C
:100B60006701CA0CDB1CF6010081002309F4F8C000
:100B700010E081E007FF41C0023C08F48AC0D601C2
:100B80001196FE01339681E0000F07FF12C08F5FC0
:100B90002D912F7730E021933193F6CFFC016081C6
:100BA0007181A801C7010E94310EF701E00FF11F0A
:100BB000CECF10E0E82FF0E0082E02C01595079583
:100BC0000A94E2F71A830983EE0FFF1FE60DF71D63
:100BD00050E040E010E000E032912291042E02C08B
:100BE000220F331F0A94E2F731832083020F131F71
:100BF0004A5F5F4F6E167F0679F790912903482E62
:100C0000512C992309F44EC030902703809124037E
:100C1000831508F047C0209025039801A501B7016E
:100C20008FE093E00E94C601882331F02816A8F5D2
:100C30008FEF820D8093240380912403821590F11D
:100C40002091280330912603822F90E00196632F94
:100C500070E00E94FC0B892B19F11092270381E0B0
:100C6000820F632F0E94DC0B9093280380911C035A
:100C700080932403492F60E08FE093E00E943404C6
:100C80000032110579F4A40CB51CFFEF8F1A9F0AEE
:100C900067CF81E010E000E0B0CF3A94830DCACF77
:100CA0000E9412049091270380912503981758F70A
:100CB000B8018FE093E00E9476048C01682F8FE0EA
:100CC00093E00F3F110509F0B0F50E946B0580918C
:100CD00027038F5F80932703909125038913D3CF38
:100CE000F601E40DF51D8081882369F280912903C6
:100CF000882349F22091280330912603822F90E027
:100D00000196632F70E00E94FC0B892B09F1109271
:100D1000270381E0820F632F0E94DC0B909328034E
:100D200080911C0380932403492F60E08FE093E0BF
:100D30000E943404A8CF0E946B05612F8FE093E0DE
:100D40000E946B05809127038F5F80932703BFCF9D
:100D500060E070E0CB010E94F8000E94120493CF83
:100D6000C40129853A850FB6F8943EBF0FBE2DBF4A
:100D70002A960FB6F894DEBF0FBECDBFDF91CF919C
:100D80001F910F91FF90EF90DF90CF90BF90AF90A9
:100D90009F908F907F906F905F904F903F902F909B
:100DA0000895FC0180819181009711F00C94D40C7E
:100DB00008950F931F93CF93DF93EC01888199815E
:100DC000009759F02A813B812617370730F081E0E0
:100DD000DF91CF911F910F9108958B016F5F7F4F2E
:100DE0000E945D0D009759F0998388831B830A83C5
:100DF0002C813D81232B59F7FC011082E8CF80E044
:100E0000E7CFEF92FF920F931F93CF93DF93EC0105
:100E10007B018A01BA010E94D9062881398181119A
:100E200014C02115310519F0C9010E94D40C198292
:100E300018821D821C821B821A82CE01DF91CF9103
:100E40001F910F91FF90EF9008951D830C83B701C0
:100E5000C9010E942A0EF1CF85ED8093BC008091DC
:100E6000C4029091C502A091C602B091C702079634
:100E7000A11DB11D23E0B695A795979587952A9555
:100E8000D1F72091BC0024FD03C01092C202089546
:100E90004091C4025091C5026091C6027091C70290
:100EA000452B462B472B69F30097A105B10541F06F
:100EB0002AE22A95F1F700C00197A109B109E1CF13
:100EC0008091C3020C9450020F931F93CF93DF9332
:100ED000CDB7DEB760970FB6F894DEBF0FBECDBFBB
:100EE0009C0168EE73E00E94E80B9F938F93CB0107
:100EF0006CE370E00E94E80B9F938F9381E02036B3
:100F00003A4E08F480E01F928F938EED91E09F930C
:100F10008F938E010F5F1F4F1F930F930E94400E00
:100F200041E060E08FE093E00E9465041C861B8630
:100F30001E861D86188A1F8645E050E060E172E03B
:100F4000CE010B960E940107CE010B960E947105FF
:100F5000CE010B960E94D1061C861B861E861D861E
:100F6000188A1F86F80101900020E9F73197AF0138
:100F7000401B510BB801CE010B960E940107CE0118
:100F80000B960E947105CE010B960E94D1060FB6FA
:100F9000F894DEBF0FBECDBF60960FB6F894DEBFEB
:100FA0000FBECDBFDF91CF911F910F9108951F927A
:100FB0000F920FB60F9211242F933F938F939F930D
:100FC000AF93BF938091FB029091FC02A091FD0230
:100FD000B091FE023091FA0223E0230F2D3758F52D
:100FE0000196A11DB11D2093FA028093FB029093FC
:100FF000FC02A093FD02B093FE028091FF0290914B
:101000000003A0910103B09102030196A11DB11D3F
:101010008093FF0290930003A0930103B093020317
:10102000BF91AF919F918F913F912F910F900FBEE4
:101030000F901F90189526E8230F0296A11DB11D51
:10104000D2CF1F920F920FB60F9211242F933F937E
:101050004F935F936F937F938F939F93AF93BF93C0
:10106000EF93FF93E0910201F09103010995FF9145
:10107000EF91BF91AF919F918F917F916F915F9110
:101080004F913F912F910F900FBE0F901F90189589
:101090001F920F920FB60F9211242F933F934F93ED
:1010A0005F936F937F938F939F93AF93BF93EF93D0
:1010B000FF93E0910001F09101010995FF91EF91FB
:1010C000BF91AF919F918F917F916F915F914F9160
:1010D0003F912F910F900FBE0F901F9018951F9268
:1010E0000F920FB60F9211242F933F934F935F935C
:1010F0006F937F938F939F93AF93BF93EF93FF93E0
:101100008091B900887F803609F44AC0F0F58832B2
:1011100009F4A7C018F5803109F49BC0B8F48823FE
:1011200009F4F9C0883009F494C0FF91EF91BF91A0
:10113000AF919F918F917F916F915F914F913F916F
:101140002F910F900FBE0F901F901895883109F4C2
:1011500088C0803251F78093C00214C0803409F4F3
:101160009DC040F48033B9F38833F9F68093C00210
:1011700085ECB0C0803509F485C0883509F496C087
:10118000883499F60E942C07D0CF883909F48CC096
:1011900038F5883729F050F4883611F0803729F671
:1011A00083E08093C20210929B0257C0883809F4F2
:1011B0007BC0803919F0803809F0B7CF80919B024D
:1011C000803208F071C0E0919B0281E08E0F809325
:1011D0009B028091BB00F0E0E558FD4F80833DC04D
:1011E000803B39F0E0F4803A09F479C0883A09F09C
:1011F0009CCF84E08093C20210927A02109279020E
:10120000E091EC02F091ED02099580917902811153
:101210000FC081E0809379021092590209C0803C8E
:1012200009F4A6CF883C09F4A3CF883B09F07DCF11
:10123000E0917A0281E08E0F80937A02F0E0E75A23
:10124000FD4F80818093BB0090917A02809179025A
:1012500029C080919D028093BB0085EC8093BC00E7
:1012600064CF9091BF028091BE02981758F5E0912B
:10127000BF0281E08E0F8093BF02F0E0E256FD4F87
:101280008081E9CFE091BF0281E08E0F8093BF02A1
:101290008091BB00F0E0E256FD4F80839091BF0249
:1012A0008091BE029817C8F285E8D8CFE091BF02BE
:1012B00081E08E0F8093BF028091BB00F0E0E25688
:1012C000FD4F80838091C10281115CCF81E08093CA
:1012D0009C0284EA8093BC001092C20226CF85EC67
:1012E0008093BC001092C20280919B02803230F445
:1012F000E0919B02F0E0E558FD4F108260919B0267
:1013000070E0E091EA02F091EB028BE792E0099540
:1013100010929B020ACF1092C00234CFE3E0F3E0B8
:101320001382128288EE93E0A0E0B0E0848395837C
:10133000A683B78382EF91E091838083EFE0F3E0AF
:101340001382128287E2848390E1918782E0828710
:101350001386128A118A138A148A158A968B878BB0
:10136000108E118E81E0828F84E092E091838083E1
:1013700084E4868784E091E0908B87878AE0848785
:1013800086E085870895CF93DF93CDB7DEB7A19729
:101390000FB6F894DEBF0FBECDBF789484B58260DF
:1013A00084BD84B5816084BD85B5826085BD85B509
:1013B000816085BD80916E00816080936E00109287
:1013C0008100809181008260809381008091810002
:1013D0008160809381008091800081608093800093
:1013E0008091B10084608093B1008091B0008160F1
:1013F0008093B00080917A00846080937A0080911D
:101400007A00826080937A0080917A008160809374
:101410007A0080917A00806880937A001092C100EF
:101420008091F202811119C01092F1021092F00223
:101430001092EF021092EE020E94320286E991E0D1
:101440009093ED028093EC0287E991E09093EB0298
:101450008093EA0281E08093F2021092140380915B
:101460001903823018F098E09093140380931703C7
:1014700062E370E080E090E00E94F80060911A035F
:101480008FE093E00E94F70268EE73E080E090E066
:101490000E94F80060E38FE093E00E94E2030BE417
:1014A00016E4C8010197F1F760E38FE093E00E9432
:1014B000E203C8010197F1F760E38FE093E00E9437
:1014C000E20383E592E00197F1F760E28FE093E0B9
:1014D0000E94E20360911403606240E08FE093E0B9
:1014E0000E94FB0384E08093150340E06CE08FE0F2
:1014F00093E00E94FB0340E061E08FE093E00E94F4
:10150000FB030BE31FE1C8010197F1F782E0809331
:10151000160340E066E08FE093E00E94FB0340E0AA
:1015200062E08FE093E00E94FB03C8010197F1F7AE
:1015300088E080931A0360E08FE093E00E94F70256
:101540000E941204E2E9F0E02491EEE7F0E08491D9
:101550008823C9F090E0880F991FFC01E859FF4FDC
:1015600045915491FC01EE58FF4FA591B4919FB75E
:10157000F894FA0180812095822380838C91E22F58
:10158000E823EC939FBF8BE291E09093010180935D
:101590000001809169008C7F826080936900E89AE5
:1015A0008AE0882E912CA12CB12C90E0E92E90E0BD
:1015B000F92E40E060E08FE093E00E946504209106
:1015C000F8023091F90250E040E019A28E010F5D5F
:1015D0001F4FCA01B901A50194010E94100C605D62
:1015E000F80162938F01211531054105510589F7F5
:1015F00080E0309761F001900020E9F73197AF016A
:10160000401B510BB8018FE093E00E94990190912B
:101610002703890F809327038091F702882309F419
:101620004FC08FB7F8944090FB025090FC0260903E
:10163000FD027090FE028FBF8091F3029091F40240
:10164000A091F502B091F602481A590A6A0A7B0A7B
:101650001A8219821C821B821E821D826EE070E03B
:10166000CE0101960E94D90629813A8181111EC0BE
:101670002115310519F0C9010E94D40C1A82198272
:101680001E821D821C821B82CE0101960E94710562
:10169000CE0101960E94D106C2010E946407E114A6
:1016A000F10409F486CF0E94000083CF8EE090E021
:1016B0009E838D8366E172E0C9010E942A0EE4CF09
:1016C0008091F8029091F902892B41F08091F30208
:1016D0009091F402A091F502B091F6021A8219825B
:1016E0001C821B821E821D826EE070E0CE0101967C
:1016F0000E94D90629813A8181111DC02115310529
:1017000019F0C9010E94D40C1A8219821E821D820E
:101710001C821B82CE0101960E947105CE010196AA
:101720000E94D1068091F3029091F402A091F502FB
:10173000B091F602B2CF8EE090E09E838D8365E299
:1017400072E0C9010E942A0EE5CF2F923F924F927C
:101750005F926F927F928F929F92AF92BF92CF9241
:10176000DF92EF92FF920F931F93CF93DF93CDB74A
:10177000DEB7CA1BDB0B0FB6F894DEBF0FBECDBFC2
:1017800009942A88398848885F846E847D848C8493
:101790009B84AA84B984C884DF80EE80FD800C819C
:1017A0001B81AA81B981CE0FD11D0FB6F894DEBF7F
:1017B0000FBECDBFED010895991B79E004C0991FBC
:1017C000961708F0961B881F7A95C9F7809508959B
:1017D000AA1BBB1B51E107C0AA1FBB1FA617B70757
:1017E00010F0A61BB70B881F991F5A95A9F7809573
:1017F0009095BC01CD01089597FB072E16F4009437
:1018000007D077FD09D00E94E80B07FC05D03EF415
:10181000909581959F4F0895709561957F4F08959C
:10182000A1E21A2EAA1BBB1BFD010DC0AA1FBB1FE4
:10183000EE1FFF1FA217B307E407F50720F0A21B56
:10184000B30BE40BF50B661F771F881F991F1A94C3
:1018500069F760957095809590959B01AC01BD01ED
:10186000CF010895EE0FFF1F0590F491E02D09942C
:101870000F931F93CF93DF938230910510F482E092
:1018800090E0E0912C03F0912D0330E020E0B0E0F7
:10189000A0E0309799F42115310509F44AC0281BBE
:1018A000390B24303105D8F58A819B81611571058A
:1018B00089F1FB0193838283FE0111C04081518134
:1018C0000281138148175907E0F04817590799F426
:1018D000109761F012960C93129713961C93329600
:1018E000CF01DF91CF911F910F91089500932C03A9
:1018F00010932D03F4CF2115310551F042175307F2
:1019000038F0A901DB019A01BD01DF01F801C1CF67
:10191000EF01F9CF90932D0380932C03CDCFFE01DF
:10192000E20FF31F81939193225031093983288369
:10193000D7CF20912A0330912B03232B41F4209100
:10194000D2013091D30130932B0320932A032091AD
:10195000D0013091D1012115310541F42DB73EB7A9
:101960004091D4015091D501241B350BE0912A03FD
:10197000F0912B03E217F307A0F42E1B3F0B28175F
:10198000390778F0AC014E5F5F4F2417350748F0F8
:101990004E0F5F1F50932B0340932A038193919323
:1019A0009FCFF0E0E0E09CCFCF93DF930097E9F08A
:1019B000FC01329713821282A0912C03B0912D0367
:1019C000ED0130E020E01097A1F420813181820FF9
:1019D000931F20912A0330912B032817390709F010
:1019E00061C0F0932B03E0932A03DF91CF91089518
:1019F000EA01CE17DF07E8F54A815B819E014115B8
:101A00005105B1F7E901FB83EA8349915991C40F6C
:101A1000D51FEC17FD0761F4808191810296840F38
:101A2000951FE90199838883828193819B838A83AF
:101A3000F0E0E0E012968D919C9113970097B9F534
:101A40002D913C911197CD010296820F931F209109
:101A50002A0330912B032817390739F6309751F5AF
:101A600010922D0310922C03B0932B03A0932A0302
:101A7000BCCFD383C28340815181840F951FC81787
:101A8000D90761F44E5F5F4F88819981480F591FD4
:101A9000518340838A819B81938382832115310501
:101AA00009F0B0CFF0932D03E0932C039ECFFD01FE
:101AB000DC01C0CF13821282D7CFB0E0A0E0E3E612
:101AC000FDE00C94A70B8C01009751F4CB010E9410
:101AD000380C8C01C801CDB7DEB7E0E10C94C30B24
:101AE000FC01E60FF71F9C0122503109E217F307B2
:101AF00008F49DC0D901CD91DC911197C617D70785
:101B000098F0C530D10530F3CE01049786179707BA
:101B100008F3C61BD70B2297C193D1936D937C9387
:101B2000CF010E94D40CD6CF5B01AC1ABD0A4C0188
:101B30008C0E9D1EA0912C03B0912D03512C412C95
:101B4000F12CE12C109731F580912A0390912B0311
:101B50008815990509F05CC04616570608F058C06C
:101B60008091D0019091D101009741F48DB79EB73B
:101B70004091D4015091D501841B950BE817F907CA
:101B800008F055C0F0932B03E0932A03F901718309
:101B90006083A0CF8D919C91119712966C901297B3
:101BA00013967C901397A815B90559F56C0142E07E
:101BB000C40ED11CCA14DB0420F1AC014A195B0924
:101BC000DA011296159780F0628273825183408306
:101BD000D9016D937C93E114F10471F0D701139650
:101BE000FC93EE93129776CF22968C0F9D1FF901EE
:101BF00091838083F301EFCFF0932D03E0932C03C7
:101C000069CF4816590608F42C017D01D3019ACFFB
:101C1000CB010E94380C7C01009749F0AE01B8015D
:101C20000E941A0EC8010E94D40C870153CF10E005
:101C300000E050CFFB01DC0102C001900D92415049
:101C40005040D8F70895DC0101C06D9341505040D9
:101C5000E0F70895FB01DC0101900D920020E1F70F
:101C60000895FB01DC014150504048F001900D9275
:101C70000020C9F701C01D9241505040E0F708957F
:101C8000AEE0B0E0E6E4FEE00C94B30B0D891E89F3
:101C900086E08C831A8309838FEF9FE79E838D8371
:101CA000AE01475E5F4F6F89788DCE0101960E942D
:101CB000630E2F813885020F131FF80110822E96B4
:101CC000E4E00C94CF0BABE0B0E0E9E6FEE00C946E
:101CD000A50B7C013B018A01FC01178216828381DE
:101CE00081FFC8C1CE0101965C01F7019381F30128
:101CF00093FD859193FF81913F01882309F453C19E
:101D0000853239F493FD859193FF81913F018532AE
:101D100029F4B70190E00E945310E7CF912C212CB9
:101D2000312CFFE1F31538F08B3211F190F4803251
:101D300009F1833229F137FC3CC020ED280F2A300D
:101D400050F536FE20C08AE0989E200D1124922E78
:101D500006C08D3291F0803371F7689430F8F3014A
:101D600093FD859193FF81913F018111DACF21C0CD
:101D7000689431F8689432F8F2CF689433F8EFCF72
:101D8000689434F8ECCFEAE02E9E200D1124222E28
:101D9000689435F8E4CF8E3229F436FC04C1689497
:101DA00036F8DDCF8C3619F4689437F8D8CF8836FA
:101DB000B1F2982F9F7D95549330E0F08336A1F1D6
:101DC0008337C1F1833509F063C02801F2E04F0E7B
:101DD000511CF801C080D180692D70E036FC02C032
:101DE0006FEF7FEFC6010E943D104C01689437F8F9
:101DF00082010AC00C5F1F4FFFE3F983882483949C
:101E0000912C6501E89437F833FE2DC0522C8114D3
:101E1000910471F5552009F468CFB70180E290E094
:101E20000E9453105A94F6CFF801808189830E5F87
:101E30001F4FE4CF2801F2E04F0E511CF801C08083
:101E4000D180692D70E036FC02C06FEF7FEFC601D4
:101E50000E9448104C018201D5CFB70180E290E08A
:101E60000E9453102A942814190409F0B0F7CECF19
:101E7000F60137FC859137FE81916F01B70190E043
:101E80000E94531051105A94F1E08F1A9108BFCF5D
:101E9000843619F0893609F077C0F80137FE6BC037
:101EA00060817181828193810C5F1F4FF32DFF76DA
:101EB0003F2E97FF09C090958095709561957F4F53
:101EC0008F4F9F4F689437F82AE030E0A5010E94B9
:101ED0008310C82ECA188C2C432C36FE0CC0E894F4
:101EE00040F8C91440F434FE05C032FC03C0F32DA1
:101EF000FE7E4F2E892C44FE95C0FE01EC0DF11D97
:101F00008081803309F087C0242D297E422E842DC4
:101F10008870582E43FC95C040FE8FC09C2C8214C4
:101F200018F42C0C922C981844FE91C0B70180E351
:101F300090E00E94531042FE09C088E790E041FE05
:101F400002C088E590E0B7010E945310C91408F45C
:101F50008AC0CA94D12C9FEFC91AD90ACA0CDB1CBB
:101F6000F60182916F01B70190E00E945310AC140A
:101F7000BD04B1F74FCF60817181072E000C880B33
:101F8000990B0E5F1F4F92CFD32CE894D4F82AE020
:101F900030E0853739F1232D297FD22E8F3601F19C
:101FA00048F48835A9F0F701868197812B96E2E104
:101FB0000C94C10B803749F08837A9F7D4FE02C0D2
:101FC0006894D2F820E130E00DC06894D4F8F6CFE0
:101FD00034FE03C0822F8660D82E20E132E002C09A
:101FE00028E030E0F801D7FE0FC060817181828166
:101FF00093810C5F1F4FA5010E948310C82ECA1841
:102000003D2CE89437F867CF6081718190E080E0E3
:102010000E5F1F4FF0CF42FC02C0839478CF8394B1
:10202000839475CF842D867809F471CFF6CFB701EC
:1020300080E290E00E94531083948214C0F3512CEC
:1020400073CF522C5818821408F46ECFF8CF842D19
:10205000867809F47BCF8BE241FE80E247FC8DE27B
:10206000B70190E071CFB70180E390E00E94531078
:102070009A946CCF8FEF9FEF99CFFC010590615040
:1020800070400110D8F7809590958E0F9F1F08958E
:10209000FC016150704001900110D8F78095909537
:1020A0008E0F9F1F08950F931F93CF93DF93182FC9
:1020B000092FEB018B8181FD09C01FEF0FEF812FED
:1020C000902FDF91CF911F910F91089582FF14C03F
:1020D0002E813F818C819D81281739073CF4E8814E
:1020E000F981CF0101969983888310838E819F8126
:1020F00001969F838E83E3CFE885F985812F09952B
:10210000892BA1F3DACFFA01AA27283051F1203127
:1021100081F1E8946F936E7F6E5F7F4F8F4F9F4F7B
:10212000AF4FB1E03ED0B4E03CD0670F781F891FBD
:102130009A1FA11D680F791F8A1F911DA11D6A0F8B
:10214000711D811D911DA11D20D009F468943F913E
:102150002AE0269F11243019305D3193DEF6CF013D
:102160000895462F4770405D4193B3E00FD0C9F703
:10217000F6CF462F4F70405D4A3318F0495D31FD70
:102180004052419302D0A9F7EACFB4E0A6959795C3
:10219000879577956795BA95C9F700976105710599
:1021A00008959B01AC010A2E0694579547953795E3
:1021B0002795BA95C9F7620F731F841F951FA01D3D
:0621C0000895F894FFCF22
:1021C60098019801A2005CA300CF0104A21004416B
:1021D6001104A01204421304A11404E015044516C8
:1021E60004A31704A41804A51904A61A044B1B0477
:1021F600A71C044D1D04481E044F1F04A8200450AC
:102206002104432204542304A92404AA250458269D
:1022160004E12704AB2804AC2904E22A04AD2B040C
:10222600AE2C04622D04AF2E04B02F04B13004612D
:102236003104B23204B33304B43404E335046536EE
:1022460004B63704B73804B83904B93A04BA3B04BB
:10225600BB3C04BC3D04BD3E046F3F04BE4004705D
:102266004104634204BF4304794404E445047846C8
:1022760004E54704C04804C14904E64A04C24B04C5
:10228600C34C04C44D04C54E04C64F04C75104B51F
:1022960000002E038000000040001400540025308A
:1022A60032643A253032643A253033640000000047
:1022B6000000C8029B02DF037102940281027202CF
:1022C600000000006B059901DF03DE037604C601FA
:1022D60074696D653A0054696D6572207374617234
:1022E600746564210054696D65722073746F707033
:0422F60065642100FA
:00000001FF
